:100000000C940A090C9426090C9426090C942609D0
:100010000C9426090C9426090C9426090C942609A4
:100020000C9426090C9426090C948E0F0C94ED0F59
:100030000C9426090C9426090C9426090C94260984
:100040000C9426090C9426090C9426090C94260974
:100050000C9426090C9426090C9426090C94260964
:100060000C9426090C9426090C9426090C94260954
:100070000C9426090C9426090C9426090C94260944
:100080000C9426090C9426090C9426090C94260934
:100090000C9426090C9426090C9426090C94260924
:1000A0000C9426090C9426090C942609004D4C2A20
:1000B0004AE30101494B2C284E00E0E22F302C008E
:1000C0000000005051524F76E133140D0E1B3E35A7
:1000D00005101A191D6539041208180C0000070BC9
:1000E0001711162D2B343637131C3D2E090A061511
:1000F0000F38291E1F20212245442324252627317D
:1001000000000000000000000000000000000000EF
:1001100000000000000000000050514F00000000EF
:10012000000000000000000052000000000000007D
:1001300000000000000000000000000000000100BE
:10014000000000000000003A3B3C3D3E44453F407B
:1001500041424300000000000000000000000000D9
:10016000000000000000000000000000000000008F
:10017000000000000000000000000000000000007F
:10018000000000000000000000000000000000006F
:10019000000000000000000000000000000000005F
:1003F000000000000000D50ED50ED50ED50ED50E8E
:10040000ED0EEF0ED50ED50ED50ED50ED50E000085
:10041000D50ED50ED50ED50ED50E0000000000006D
:100420000000D50ED50ED50ED50ED50ED50ED50E97
:10043000D50ED50ED50ED50ED50ED50ED50ED50EA4
:10044000D50ED50ED50ED50ED50ED50ED50ED50E94
:10045000D50ED50E00000000D50ED50ED50ED50E4A
:10046000D50ED50ED50ED50ED50ED50ED50ED50E74
:10047000D50ED50ED50ED50ED50ED50ED50ED50E64
:10048000D50ED50ED50ED50ED50ED50ED50ED50E54
:10049000D50ED50ED50ED50ED50ED50E000000000A
:1004A000000000000000000000000000000000004C
:1004B000000000000000000000000000000000003C
:1004C0000000000000000000000000000000D50E49
:1004D000D50ED50E00000000000000000000000056
:1004E000000000000000000000000000D50E000029
:1004F00000000000000000000000000000000000FC
:1005000000000000000000000000000000000000EB
:100510000000000000000000EF0E000000000000DE
:100520000000000000000000030FD50ED50ED50E10
:10053000D50ED50ED50ED50ED50ED50ED50ED50EA3
:10054000D50EBD0D000000000000000000000000FE
:10055000000000000000000000000000000000009B
:10056000000000000000000000000000000000008B
:10057000000000000000000000000000000000007B
:10058000000000000000000000000000000000006B
:100A8000000000000000D50ED50ED50ED50ED50EF7
:100A900000000000D50ED50ED50ED50ED50E0000E7
:100AA000D50ED50ED50ED50ED50E000000000000D7
:100AB0000000D50ED50ED50ED50ED50ED50ED50E01
:100AC000D50ED50ED50ED50ED50ED50ED50ED50E0E
:100AD000D50ED50ED50ED50ED50ED50ED50ED50EFE
:100AE000D50ED50E00000000D50ED50ED50ED50EB4
:100AF000D50ED50ED50ED50ED50ED50ED50ED50EDE
:100B0000D50ED50ED50ED50ED50ED50ED50ED50ECD
:100B1000D50ED50ED50ED50ED50ED50ED50ED50EBD
:100B2000D50ED50ED50ED50ED50ED50E0000000073
:100B300000000000000000000000000000000000B5
:100B400000000000000000000000000000000000A5
:100B50000000000000000000000000000000D50EB2
:100B6000D50ED50E000000000000000000000000BF
:100B7000000000000000000000000000D50E000092
:100B80000000000000000000000000000000000065
:100B90000000000000000000000000000000000055
:100BA0000000000000000000000000000000000045
:100BB00000000000000000000000D50ED50ED50E8C
:100BC000D50ED50ED50ED50ED50ED50ED50ED50E0D
:100BD000D50E000000000000000000000000000032
:100BE0000000000000000000000000000000000005
:100BF00000000000000000000000000000000000F5
:100C000000000000000000000000000000000000E4
:100C100000000000000000000000000000000000D4
:1011100000000000000100004B1112000200005D01
:101120001122002200007F113F002100006F1109F1
:1011300000030000BE110401030904C211180203D8
:101140000904DC1136000001C10600120100020092
:10115000000020501D286000010102000109022248
:1011600000010100C032090400000103010100096F
:101170002111010001223F0007058303080001053A
:10118000010906A10175019508050719E029E71570
:1011900000250181029501750881039505750105FA
:1011A00008190129059102950175039103950675AA
:1011B00008150025680507190029688100C0040387
:1011C0000904180375006E00730070006500630069
:1011D0006900660069006500640000003603450090
:1011E000720067006F0044006F0078002000650007
:1011F000720067006F006E006F006D006900630091
:1012000020006B006500790062006F0061007200D1
:101210006400000011241FBECFEFDAE0DEBFCDBFB7
:1012200011E0A0E0B1E0EEECF2E202C005900D9218
:10123000AA31B107D9F712E0AAE1B1E001C01D92CD
:10124000A636B107E1F748D00C9465110C94000064
:1012500030916202209137029091380280916502AC
:10126000332391F0ECE12E9FF001112428EA929FA4
:1012700090011124E20FF31F90E0880F991FE80FEF
:10128000F91FEC50FC4F11C0ECE12E9FF00111242E
:1012900028EA929F90011124E20FF31F90E0880F3B
:1012A000991FE80FF91FEC57F54F85919491E82F9E
:1012B000F92F309709F009950895E0911A01E81780
:1012C00048F0F0E0E81BF109EE0FFF1FE75CFD4F6F
:1012D0008081089580E008950F931F93CF93DF934B
:1012E0005DD18CE090E0909389008093880090938A
:1012F0008B0080938A0090938D0080938C00259AB8
:10130000269A279AB7D5CDD58823E9F38FE790E0C1
:1013100090938900809388002FE732E440E12150C8
:1013200030404040E1F700C0000090938B00809374
:101330008A002FE732E440E1215030404040E1F79D
:1013400000C0000090938D0080938C002FE732E462
:1013500040E1215030404040E1F700C000002598B6
:1013600026982798909389008093880090938B000B
:1013700080938A0090938D0080938C00809102016D
:1013800090910301209100013091010130930301FC
:101390002093020190930101809300010BD11092E0
:1013A000E20178C0109263026BC0C02FD0E0E091E0
:1013B0000001F0910101812F90E09C01220F331F69
:1013C000C90143E0880F991F4A95E1F7821B930BEF
:1013D0008C0F9D1FE80FF91F408140936202E0913E
:1013E0000201F0910301812F90E09C01220F331F35
:1013F000C901A3E0880F991FAA95E1F7821B930BFF
:101400008C0F9D1FE80FF91F8081809361024817A0
:1014100091F14423B1F080E050DF80933802212F16
:1014200030E0220F331FF90173E0EE0FFF1F7A95B2
:10143000E1F7E21BF30BEC0FFD1FED51FE4F808334
:1014400013C0812F90E0880F991FFC0153E0EE0F2D
:10145000FF1F5A95E1F7E81BF90BEC0FFD1FED514B
:10146000FE4F80818093380210933702009365020B
:1014700010926402EDDE809163028F5F80936302BD
:10148000009163021091E2010E3008F48ECF1F5FCD
:101490001093E2018091E201863008F483CF04D5F5
:1014A0008FE19EE40197F1F700C000008091DE011A
:1014B00080FF02C0259A01C025988091DE0181FF3E
:1014C00002C0269A01C026988091DE0182FF02C0E8
:1014D000279A01C027988091DE018091DE014ECFCE
:1014E000982FE5E0F1E020E030E0822F8F5F2F5F62
:1014F0003F4F4191442391F42C5F3E4F41E0F9016D
:101500004083E0911A01EF5FE0931A01F0E0EE0FE3
:10151000FF1FE75CFD4F90838183089523313105E0
:1015200021F780E00895CF93DF9320911A0191E095
:10153000C82FD0E0CC5FDE4F2AC0E92FF0E0EE0FDD
:10154000FF1FE75CFD4F3181381701F512C0A92F4D
:10155000B0E0FD01EE0FFF1FE75CFD4FAA0FBB1FC0
:10156000A55CBD4F3C91308311963C91119731831E
:101570009F5F921760F3E22FF0E0EE0FFF1FE75C32
:10158000FD4F108211821882922F21509F5F2917E0
:10159000A0F620931A01DF91CF910895C1D088233E
:1015A00029F41AD0882321F082E0089581E008957B
:1015B00080E00895CF93DF93EC017BD1882331F451
:1015C000CE0135D0882321F082E003C081E001C044
:1015D00080E0DF91CF9108951F9359D380E478D3B1
:1015E000182F882301F580E073D380E871D38FEF43
:1015F0006FD366D34CD380E46BD3182F882399F430
:101600008CE066D380E864D38FEF62D359D33FD3A5
:1016100080E45ED3182F882331F484E159D38FEF0F
:1016200057D38FEF55D34CD3812F1F9108959F929D
:10163000AF92BF92CF92DF92EF92FF920F931F93E0
:10164000DF93CF930F92CDB7DEB77C01C5DF982E25
:10165000882371F0F70186E01082118212821382D2
:1016600014821582168281503E968823A9F74AC0BB
:1016700000E010E081E0C82ED12C5E010894A11C8E
:10168000B11C05D380E424D382E122D3C601002E0D
:1016900002C0880F991F0A94E2F7809519D310D3DE
:1016A000F6D280E415D383E113D3F1D281E410D3D1
:1016B000C5012ED305D3498150E0F701E00FF11F9A
:1016C00025E030E0CA01022E02C0959587950A9464
:1016D000E2F761E080FD60E06083215030403E969B
:1016E0008FEF2F3F380771F70F5F1F4F073011053E
:1016F00009F0C7CFCCD280E4EBD282E1E9D28FEF00
:10170000E7D2DED2892D0F90CF91DF911F910F91FB
:10171000FF90EF90DF90CF90BF90AF909F90089593
:10172000E1E6F0E080E88083108256985E98249885
:101730002C9825982698279889EA8093800089E03C
:10174000809381009BD23F9885E08A95F1F7000055
:10175000579885E08A95F1F70000549885E08A95BE
:10176000F1F70000559885E08A95F1F700006E9832
:1017700085E08A95F1F70000479A85E08A95F1F7B0
:1017800000005F9A85E08A95F1F700005C9A85E099
:101790008A95F1F700005D9A85E08A95F1F70000DF
:1017A000769A85E08A95F1F70000879885E08A951A
:1017B000F1F70000869885E08A95F1F7000085989A
:1017C00085E08A95F1F70000849885E08A95F1F725
:1017D0000000819885E08A95F1F70000809885E007
:1017E0008A95F1F70000209885E08A95F1F70000CE
:1017F000219885E08A95F1F70000229885E08A9586
:10180000F1F70000239885E08A95F1F700005298DF
:1018100085E08A95F1F70000539885E08A95F1F705
:1018200000003E9885E08A95F1F700008F9A85E0E8
:101830008A95F1F700008E9A85E08A95F1F700000D
:101840008D9A85E08A95F1F700008C9A85E08A955B
:10185000F1F70000899A85E08A95F1F70000889AEF
:1018600085E08A95F1F70000289885E08A95F1F7E0
:101870000000299885E08A95F1F700002A9885E014
:101880008A95F1F700002B9885E08A95F1F7000022
:101890005A9885E08A95F1F700005B9885E08A9573
:1018A000F1F70000469885E08A95F1F7000080E0A6
:1018B00008950F931F93CF93DF93FC01209A65E067
:1018C0006A95F1F700008FB18095881F8827881FDF
:1018D0008783AF01425F5F4F81E07E9980E0DA014C
:1018E00017968C9317979F01245E3F4F81E07D9957
:1018F00080E0D90117968C931797CF018A9661E003
:101900007C9960E0DC0117966C931797EF01E896DD
:1019100061E0799960E06F838F010A5B1F4F61E09E
:10192000789960E0D80117966C9317972098B5E0E6
:10193000BA95F1F70000219A65E06A95F1F7000089
:101940006FB16095661F6627661F608761E07E99AC
:1019500060E0DA0118966C93189761E07D9960E079
:10196000D90118966C93189761E07C9960E0DC01CE
:1019700018966C93189761E0799960E0688761E048
:10198000789960E0D80118966C9318972198B5E083
:10199000BA95F1F70000229A65E06A95F1F7000028
:1019A0006FB16095661F6627661F618761E07E994B
:1019B00060E0DA0119966C93199761E07D9960E017
:1019C000D90119966C93199761E07C9960E0DC016C
:1019D00019966C93199761E0799960E0698761E0E5
:1019E000789960E0D80119966C9319972298B5E020
:1019F000BA95F1F70000239A65E06A95F1F70000C7
:101A00006FB16095661F6627661F628761E07E99E9
:101A100060E0DA011A966C931A9761E07D9960E0B4
:101A2000D9011A966C931A9761E07C9960E0DC0109
:101A30001A966C931A9761E0799960E06A8761E081
:101A4000789960E0D8011A966C931A972398B5E0BC
:101A5000BA95F1F70000529A65E06A95F1F7000037
:101A60006FB16095661F6627661F638761E07E9988
:101A700060E0DA011B966C931B9761E07D9960E052
:101A8000D9011B966C931B9761E07C9960E0DC01A7
:101A90001B966C931B9761E0799960E06B8761E01E
:101AA000789960E0D8011B966C931B975298B5E02B
:101AB000BA95F1F70000539A65E06A95F1F70000D6
:101AC0006FB16095661F6627661F648761E07E9927
:101AD00060E0DA011C966C931C9761E07D9960E0F0
:101AE000D9011C966C931C9761E07C9960E0DC0145
:101AF0001C966C931C9761E0799960E06C8761E0BB
:101B0000789960E0D8011C966C931C975398B5E0C7
:101B1000BA95F1F700003E9A65E06A95F1F700008A
:101B20006FB16095661F6627661F658761E07E99C5
:101B300060E0DA011D966C931D9741E07D9940E0CD
:101B4000F901458721E07C9920E0DC011D962C936A
:101B50001D9781E0799980E08D8781E0789980E018
:101B6000F80185873E98F5E0FA95F1F7000080E0EE
:101B7000DF91CF911F910F91089531D132D133D19F
:101B800034D135D136D137D138D139D13AC16623A4
:101B900009F473C0633E61F1643E40F4613EC1F0FC
:101BA000623EF0F4603E09F04DC00AC0653E81F12E
:101BB000653E30F1663EA1F1673E09F043C038C092
:101BC0009091D701882311F0916039C09E7F37C072
:101BD0009091D701882311F0926031C09D7F2FC072
:101BE0009091D701882311F0946029C09B7F27C072
:101BF0009091D701882311F0986021C0977F1FC072
:101C00009091D701882311F0906119C09F7E17C071
:101C10009091D701882311F0906211C09F7D0FC071
:101C20009091D701882311F0906409C09F7B07C071
:101C30009091D701882311F0906801C09F7790930D
:101C4000D7010895E8EDF1E020E030E090818823AD
:101C500039F0992361F428523E4FF90160830895C9
:101C6000961729F428523E4FF901108208952F5FEC
:101C70003F4F31962630310549F70895E9EBF0E002
:101C800080818C7F808388E48093B800089584EA03
:101C90008093BC008091BC0087FFFCCF8091B9008D
:101CA000887F883049F08091B900887F803131F099
:101CB0008091B900887F089580E0089580E00895BC
:101CC00084E98093BC008091BC0084FDFCCF089522
:101CD0008093BB0084E88093BC008091BC0087FFA8
:101CE000FCCF8091B900887F883171F08091B90074
:101CF000887F883249F08091B900887F803431F044
:101D00008091B900887F089580E0089580E008956B
:101D100024EC2093BC002091BC0027FFFCCF209135
:101D2000BB00FC0120838091B900887F803521F0C1
:101D30008091B900887F089580E00895CF93DF9364
:101D4000C82FD0E0CC0FDD1FCD53DE4F8881EBDBF9
:101D500019821882DF91CF9108951F93CF93DF935B
:101D6000E091380294E5E99FF001112420913702B7
:101D70009EE0299F90011124E20FF31F90916502CC
:101D8000E90FF11DE455FF4F1491C82FD0E0CC0F9F
:101D9000DD1FCD53DE4F8881C6DB812FA1DB888319
:101DA0001982DF91CF911F910895E091380284E567
:101DB000E89FF0011124909137028EE0989FC001B6
:101DC0001124E80FF91F80916502E80FF11DE45519
:101DD000FF4F649180916202DACE81E0BECF81E054
:101DE000ADCF82E0ABCF83E0A9CF84E0A7CF85E081
:101DF000A5CF86E0A3CF87E0A1CF88E09FCF89E081
:101E00009DCF8AE09BCFF89481E08093E00080E250
:101E10008093D800E9ECF0E010828FE19EE4019716
:101E2000F1F700C000001DBA109268001CBC10BE83
:101E30001FBA10927A0010926E0010926F001092EA
:101E40007100109272001082ECEBF0E0108214B876
:101E500017B81AB81DB810BA108215B818B81BB840
:101E60001EB811BA0C94003F08958091E80080FFDD
:101E7000FCCF089581E08093D70080EA8093D8005A
:101E800082E189BD09B400FEFDCF80E98093D800CE
:101E90001092E0001092DF018CE08093E2007894D1
:101EA00008958091DF0108958091DF01882391F1E9
:101EB0008FB7F89493E09093E9009091E4009E5CD2
:101EC00023E03091E80035FD0EC08FBF8091DF0127
:101ED000882301F18091E4008917F1F08FB7F8941D
:101EE0002093E900EECF9091D7019093F1001092EA
:101EF000F100E8EDF1E091919093F10091E0EE3D79
:101F0000F907C9F79AE39093E8001092E0018FBFB8
:101F100080E008958FEF08958FEF08951F920F923C
:101F20000FB60F9211242F938F939F93EF93FF93EC
:101F30008091E1001092E10083FF0FC01092E90050
:101F400091E09093EB001092EC0092E29093ED0000
:101F500098E09093F0001092DF0182FF34C08091EE
:101F6000DF01882381F120911801222361F1809102
:101F7000E1018F5F8093E10190E0837090700097A2
:101F800011F583E08093E9008091E80085FF1BC094
:101F90008091E0018F5F8093E0018217A1F410929D
:101FA000E0018091D7018093F1001092F100E8EDFB
:101FB000F1E081918093F10081E0EE3DF807C9F7EF
:101FC0008AE38093E800FF91EF919F918F912F9189
:101FD0000F900FBE0F901F9018951F920F920FB683
:101FE0000F921124CF92DF92EF92FF920F931F93E3
:101FF0002F933F934F935F936F937F938F939F9311
:10200000AF93BF93EF93FF93DF93CF930F92CDB72F
:10201000DEB71092E9008091E80083FF39C120917A
:10202000F1003091F1008091F100C82EDD24409143
:10203000F100942F80E0C82AD92A0091F10010E025
:102040004091F100942F80E0082B192B6091F10052
:10205000A091F10082EF8093E800363009F059C07A
:102060008BE191E19C0125503040FC01379745916F
:1020700054914C155D05F9F4F901459154914017BF
:102080005107C9F42E5F3F4FF901859194912E5F5E
:102090003F4FF9012491462F50E07A2F60E0462B04
:1020A000572B4F3F510519F010F04FEF50E04217FA
:1020B00050F4242F08C00796295F3F4FF1E18C347C
:1020C0009F0799F6E5C0AEEF4091E80050E0BA01F5
:1020D0006570707061157105B9F342FDDCC0322F77
:1020E000213208F030E2AC01632F07C0FA014F5FE4
:1020F0005F4FE491E093F10061506623B9F7830FDD
:10210000911D231BA093E8002223F1F63032E1F267
:10211000C2C0353049F48EEF8093E800A6DE8C2DE6
:1021200080688093E300B7C0393031F5222309F08D
:1021300069C0C092DF018EEF8093E80041E085E442
:1021400091E14093E900FC010196E491E093EB00FA
:10215000EE2369F09C012F5F3F4FFC018491809337
:10216000EC00C9010196F90124912093ED004F5F25
:10217000453039F78EE141C0383039F4203809F064
:1021800041C073DE8091DF0161C03323A9F429834C
:102190006CDE2981223851F40093E9009091EB0024
:1021A00081E095FF80E01092E90001C080E080931B
:1021B000F1001092F10068C0313011F0333011F5A8
:1021C000223001F5C114D104E9F4402F4F77842F58
:1021D00081508430B8F48EEF8093E8004093E9009A
:1021E000333009F455C089E18093EB0081E090E041
:1021F00002C0880F991F4A95E2F78093EA00109277
:10220000EA0049C00115110509F042C0213A09F55B
:10221000313089F42ADE8091D7018093F100109249
:10222000F100E8EDF1E081918093F10021E0EE3DD5
:10223000F207C9F729C0323021F417DE8091180166
:1022400005C0333029F511DE809119018093F1002A
:102250001BC02132E9F4393061F48091E80082FF3B
:10226000FCCF8091F1008093DE018BEF8093E8003A
:102270000BC03A3029F4D09218011092E00104C04A
:102280003B3031F4C09219018EEF8093E80003C017
:1022900081E28093EB000F90CF91DF91FF91EF915E
:1022A000BF91AF919F918F917F916F915F914F916E
:1022B0003F912F911F910F91FF90EF90DF90CF9062
:0E22C0000F900FBE0F901F901895F894FFCF4F
:1022CE001B016F0101000000000000000000000073
:0A22DE0000000000000000007D0178
:00000001FF
